:100000000C9446000C945D000C945D000C945D0013
:100010000C945D000C945D000C945D000C945D00EC
:100020000C945D000C945D000C945D000C945D00DC
:100030000C945D000C945D000C945D000C945D00CC
:100040000C945D000C945D000C945D000C945D00BC
:100050000C945D000C945D000C945D000C945D00AC
:100060000C945D000C945D000C945D000C945D009C
:100070000C945D000C945D000C945D000C945D008C
:100080000C945D000C945D000C945D0011241FBE67
:10009000CFEFD0E4DEBFCDBF11E0A0E0B1E0E0E201
:1000A000F2E000E00BBF02C007900D92AE30B10746
:1000B000D9F70E9499000C940E010C940000CF9384
:1000C000DF9300D01F92CDB7DEB789837B836A832D
:1000D00089818A3031F48A819B81BC018DE00E9444
:1000E0005F0080EC90E0FC018081882F90E08072BE
:1000F0009927892BB1F386EC90E02981FC012083BC
:1001000080E090E00F900F900F90DF91CF910895D5
:10011000CF93DF93CDB7DEB78AE790E02AE730E0F0
:10012000F9012081206EFC0120830000DF91CF9136
:100130000895CF93DF9300D000D0CDB7DEB781E232
:1001400090E0FC01108282E290E02FEFFC0120831E
:1001500084E290E02FEFFC01208385E290E0FC0137
:10016000108284E690E09A8389830E94880088E761
:1001700090E0FC01808191819C838B838B819C81A9
:10018000C39728F085E290E021E0FC0120838B8179
:100190009C81CC9728F085E290E023E0FC0120834D
:1001A0008B819C818434910528F085E290E027E0E2
:1001B000FC0120838B819C818C34910528F085E2A1
:1001C00090E02FE0FC0120838B819C818435910598
:1001D00028F085E290E02FE1FC0120838B819C8157
:1001E0008C35910528F085E290E02FE3FC01208317
:1001F0008B819C818436910528F085E290E02FE781
:10020000FC0120838B819C818B36910508F4AFCF54
:1002100085E290E02FEFFC012083A9CFF894FFCF77
:0E02200000000002000000005F00000000006F
:00000001FF
